:100000000C9481000C94A9000C94A9000C94A900F4
:100010000C94A9000C94A9000C94A9000C94A900BC
:100020000C94A9000C94A9000C94A9000C94A900AC
:100030000C94A9000C94A9000C94A9000C94A9009C
:100040000C9407050C94A9000C94D5040C94AF04EF
:100050000C94A9000C94A9000C94A9000C94A9007C
:100060000C94A9000C94A9004E414E494E49545994
:10007000494E46CDCCCC3D0AD7233C17B7D1387773
:10008000CC2B329595E6241FB14F0A000020410089
:1000900000C84200401C4620BCBE4CCA1B0E5AAED3
:1000A000C59D740000000023002600290000000008
:1000B0000800020100000304070000000000000027
:1000C0000000000000250028002B00000000002494
:1000D0000027002A000404040404040404020202A9
:1000E0000202020303030303030102040810204079
:1000F00080010204081020010204081020005105AC
:10010000950711241FBECFEFD8E0DEBFCDBF21E0A1
:10011000AAE3B1E001C01D92AA3FB207E1F711E0E6
:10012000A0E0B1E0E0EEFBE102C005900D92AA3341
:10013000B107D9F710E0C0E8D0E004C02197FE0174
:100140000E94EB0BCF37D107C9F70E94DF050C9453
:10015000E30D0C940000AF92BF92CF92DF92EF922A
:10016000FF920F931F93CF93DF936C017B018B0161
:10017000040F151FEB015E01AE18BF08C017D107B1
:1001800059F06991D601ED91FC910190F081E02D3B
:10019000C6010995892B79F7C501DF91CF911F9190
:1001A0000F91FF90EF90DF90CF90BF90AF900895A8
:1001B000FC01538D448D252F30E0842F90E0821B6D
:1001C000930B541710F0CF96089501970895FC01F2
:1001D000918D828D981761F0A28DAE0FBF2FB11D4A
:1001E0005D968C91928D9F5F9F73928F90E00895A2
:1001F0008FEF9FEF0895FC01918D828D981731F05C
:10020000828DE80FF11D858D90E008958FEF9FEFAF
:100210000895FC01918D228D892F90E0805C9F4F85
:10022000821B91098F739927089584E491E00E94BD
:10023000090121E0892B09F420E0822F089580E054
:1002400090E0892B29F00E94150181110C94000087
:100250000895FC01A48DA80FB92FB11DA35ABF4F5B
:100260002C91848D90E001968F739927848FA689B5
:10027000B7892C93A089B1898C91837080648C9309
:10028000938D848D981306C00288F389E02D8081B8
:100290008F7D80830895EF92FF920F931F93CF93EA
:1002A000DF93EC0181E0888F9B8D8C8D98131AC0B1
:1002B000E889F989808185FF15C09FB7F894EE8998
:1002C000FF896083E889F9898081837080648083F5
:1002D0009FBF81E090E0DF91CF911F910F91FF9040
:1002E000EF900895F62E0B8D10E00F5F1F4F0F73E8
:1002F0001127E02E8C8D8E110CC00FB607FCFACFA3
:10030000E889F989808185FFF5CFCE010E94290116
:10031000F1CFEB8DEC0FFD2FF11DE35AFF4FF08273
:100320009FB7F8940B8FEA89FB8980818062CFCFD9
:10033000CF93DF93EC01888D8823B9F0AA89BB891C
:10034000E889F9898C9185FD03C0808186FD0DC007
:100350000FB607FCF7CF8C9185FFF2CF808185FF28
:10036000EDCFCE010E942901E9CFDF91CF91089511
:10037000833081F028F4813099F08230A9F008951B
:100380008730A9F08830C9F08430B1F480918000C2
:100390008F7D03C0809180008F77809380000895C7
:1003A00084B58F7784BD089584B58F7DFBCF809110
:1003B000B0008F778093B00008958091B0008F7D5A
:1003C000F9CFCF93DF93282F30E0F901E355FF4FAA
:1003D0008491F901E751FF4FD491F901EB52FF4F9E
:1003E000C491CC23A1F081110E94B801EC2FF0E060
:1003F000EE0FFF1FED55FF4FA591B491EC91ED234A
:1004000081E090E009F480E0DF91CF91089580E0F1
:1004100090E0FACF1F93CF93DF93282F30E0F901BC
:10042000E355FF4F8491F901E751FF4FD491F90152
:10043000EB52FF4FC491CC23A9F0162F81110E94DB
:10044000B801EC2FF0E0EE0FFF1FEF53FF4FA59127
:10045000B4918FB7F894EC91111108C0D095DE23B8
:10046000DC938FBFDF91CF911F910895DE2BF8CFE2
:100470003FB7F89480913F0190914001A0914101D4
:10048000B091420126B5A89B05C02F3F19F00196F7
:10049000A11DB11D3FBFBA2FA92F982F8827BC01DE
:1004A000CD01620F711D811D911D42E0660F771F06
:1004B000881F991F4A95D1F708958F929F92AF9206
:1004C000BF92CF92DF92EF92FF926B017C010E946C
:1004D00038024B015C01C114D104E104F104B9F00C
:1004E0000E943802681979098A099B09683E73409D
:1004F0008105910580F321E0C21AD108E108F108D5
:1005000088EE880E83E0981EA11CB11CE4CFFF90FA
:10051000EF90DF90CF90BF90AF909F908F90089515
:100520000895FF920F931F93CF93DF93F82E062F1A
:10053000C7E0D0E010E061E0802F0E940A028F2D1A
:100540000E94E1010C2E01C0880F0A94EAF7182BD3
:1005500060E0802F0E940A02219768F7812FDF91C7
:10056000CF911F910F91FF9008959F92AF92BF92EC
:10057000CF92DF92EF92FF920F931F93CF93DF936F
:10058000DAE0C12CD12C76018091EA010E94E101D0
:10059000892B31F060E070E0CB010E945D02F4CF66
:1005A0009FB6F8946091E9018091EA010E9491025E
:1005B000C82F6091E9018091EA010E949102082F01
:1005C0006091E9018091EA010E949102182FB12CFB
:1005D000A12C8091EB018A151B0479F070F061E089
:1005E0008091E9010E940A0260E08091E9010E9485
:1005F0000A028FEFA81AB80AECCF9FBE802F90E0B6
:10060000B0E0A0E0BA2FA92F982F8827AC2B812B20
:10061000CC0FCC0B4C2F50E070E060E0742F6627BD
:1006200055274427842B952BA62BB72BC80ED91EF4
:10063000EA1EFB1E60E070E0CB010E945D02D1501B
:1006400009F0A2CFC701B6012AE030E040E050E057
:100650000E94CC0B8091EC019091ED01A091EE01F4
:10066000B091EF0179018A01E81AF90A0A0B1B0B14
:10067000C801B7010E941A092091F0013091F101DF
:100680004091F2015091F3010E94F80ADF91CF915D
:100690001F910F91FF90EF90DF90CF90BF90AF90A0
:1006A0009F900895FC0101900020E9F73197AF0178
:1006B000481B590BBC0184E491E00C94AB008F9271
:1006C0009F92AF92BF920F931F93CF93DF93CDB7BB
:1006D000DEB7A1970FB6F894DEBF0FBECDBF19A24B
:1006E000423008F44AE08E010F5D1F4F842E912C9A
:1006F000B12CA12CA50194010E94AA0BE62FB901EF
:10070000CA01EA30F4F4E05DD801EE938D01232BA9
:10071000242B252B79F790E080E0109719F0CD017C
:100720000E945203A1960FB6F894DEBF0FBECDBF54
:10073000DF91CF911F910F91BF90AF909F908F90BD
:100740000895E95CE1CF4F925F926F927F928F9212
:100750009F92AF92BF92CF92DF92EF92FF920F9350
:100760001F93CF936B017C01742EAC019B010E94FF
:10077000A50B882399F081E291E0CF911F910F9111
:10078000FF90EF90DF90CF90BF90AF909F908F90B1
:100790007F906F905F904F900C94520346015701E9
:1007A000E894B7F82FEF3FEF4FE75FE7C501B401DB
:1007B0000E94A50B81110DC02FEF3FEF4FE75FE7C0
:1007C000C501B4010E94130918161CF485E291E0DA
:1007D000D4CF2FEF3FEF4FE75FE4C701B6010E9490
:1007E000A00B18161CF489E291E0C7CF2FEF3FEF62
:1007F0004FE75FECC701B6010E94130987FDF3CFF5
:1008000020E030E0A901C701B6010E94130910E001
:1008100000E087FF0AC06DE284E491E00E944B0192
:100820008C01F7FAF094F7F8F094C0E060E070E023
:1008300080E09FE37C1641F020E030E040E251E4AC
:100840000E94F80ACF5FF6CFA70196010E948C0A9A
:100850002B013C010E94710B4B015C014AE00E949C
:100860005F037C01E00EF11ECC23C1F1C501B40190
:100870000E9418099B01AC01C301B2010E948B0ABE
:100880004B015C016EE284E491E00E944B01E80EB2
:10089000F91EC15018F120E030E040E251E4C501FA
:1008A000B4010E9479092B013C010E94710B4B019C
:1008B000B12CA12C4AE0C501B4010E945F03E80EEF
:1008C000F91EC501B4010E9418099B01AC01C301C6
:1008D000B2010E948B0A4B015C01DBCFC701CF91B3
:1008E0001F910F91FF90EF90DF90CF90BF90AF904E
:1008F0009F908F907F906F905F904F9008950C9491
:100900008D0CCF93DF93EC018091E1019091E20196
:10091000009759F02091E3013091E4012C173D0735
:1009200020F081E0DF91CF910895BE016F5F7F4F8E
:100930000E94160D009789F09093E2018093E101E7
:10094000D093E401C093E3012091E5013091E601E9
:10095000232B39F7FC011082E4CF80E0E3CF1F9214
:100960000F920FB60F9211242F933F934F935F93E3
:100970006F937F938F939F93AF93BF93EF93FF9367
:1009800084E491E00E942901FF91EF91BF91AF9122
:100990009F918F917F916F915F914F913F912F9197
:1009A0000F900FBE0F901F9018951F920F920FB6C9
:1009B0000F9211242F938F939F93EF93FF93E091C6
:1009C0005401F09155018081E0915A01F0915B0151
:1009D00082FD1BC0908180915D018F5F8F7320919C
:1009E0005E01821741F0E0915D01F0E0EC5BFE4FAB
:1009F000958F80935D01FF91EF919F918F912F9142
:100A00000F900FBE0F901F9018958081F4CF1F920A
:100A10000F920FB60F9211242F933F938F939F93B2
:100A2000AF93BF9380913B0190913C01A0913D0118
:100A3000B0913E0130913A0123E0230F2D3758F554
:100A40000196A11DB11D20933A0180933B01909323
:100A50003C01A0933D01B0933E0180913F019091F4
:100A60004001A0914101B09142010196A11DB11D2B
:100A700080933F0190934001A0934101B0934201C4
:100A8000BF91AF919F918F913F912F910F900FBE8A
:100A90000F901F90189526E8230F0296A11DB11DF7
:100AA000D2CF109247011092460188EE93E0A0E069
:100AB000B0E08093480190934901A0934A01B0931C
:100AC0004B018BE091E0909345018093440185ECCC
:100AD00090E0909351018093500184EC90E09093CA
:100AE00053018093520180EC90E0909355018093E4
:100AF000540181EC90E0909357018093560182EC71
:100B000090E0909359018093580186EC90E0909387
:100B10005B0180935A0110925D0110925E01109268
:100B20005F01109260018DE191E09093E801809364
:100B3000E7011092EC011092ED011092EE0110927B
:100B4000EF0180E090E0A0E8BFE38093F001909394
:100B5000F101A093F201B093F3011092E20110921F
:100B6000E1011092E4011092E3011092E60110926B
:100B7000E50190E080E00E9481042091E101309144
:100B8000E201811113C02115310519F0C9010E943C
:100B90008D0C1092E2011092E1011092E601109288
:100BA000E5011092E4011092E30108951092E6012C
:100BB0001092E50169E371E0C9010C94DC0DCF935B
:100BC000DF9300D0CDB7DEB7789484B5826084BD62
:100BD00084B5816084BD85B5826085BD85B5816041
:100BE00085BD80916E00816080936E0010928100BF
:100BF000809181008260809381008091810081607A
:100C0000809381008091800081608093800080913A
:100C1000B10084608093B1008091B00081608093C6
:100C2000B00080917A00846080937A0080917A008D
:100C3000826080937A0080917A00816080937A004C
:100C400080917A00806880937A001092C100E091D0
:100C50005401F091550192E09083E0915401F0919C
:100C600055011082E0915001F09151011082E09104
:100C70005201F091530180E1808310925C01E09178
:100C80005801F091590186E08083E0915601F0917E
:100C90005701808180618083E0915601F091570176
:100CA000808188608083E0915601F09157018081B6
:100CB00080688083E0915601F091570180818F7D9B
:100CC00080839093E90183E08093EA01EBEEF0E00A
:100CD0002491E7EDF0E08491882399F090E0880F6B
:100CE000991FFC01E553FF4FA591B491FC01EF530F
:100CF000FF4F859194918FB7F894EC91E22BEC9390
:100D00008FBF8091EA0190E0FC01E751FF4F2491F1
:100D10008B529F4FFC0184918823C9F090E0880F8B
:100D2000991FFC01E553FF4F45915491FC01EF538E
:100D3000FF4FA591B4919FB7F894FA013081822FAB
:100D4000809583238083EC912E2B2C939FBF81E091
:100D50008093EB0180E090EBA7E4B5EC8093F00189
:100D60009093F101A093F201B093F301109200016E
:100D70008DE291E00E94520300E010E0FF24F39422
:100D800080914301811147C084E491E00E940901F0
:100D9000892BB1F384E491E00E94E700803611F1E1
:100DA00089831A82A090E501B090E601FFEFAF1AA7
:100DB000BF0AC5010E948104882331F32091E1011B
:100DC0003091E2018091E5019091E601BE016F5FF3
:100DD0007F4F820F931F0E94DC0DB092E601A0921C
:100DE000E501D2CF8091E1019091E201009779F085
:100DF0000E949E07F09243010E946A0B6093EC01EF
:100E00007093ED018093EE019093EF01BDCF60E010
:100E100070E0CB01EFCF8091000120E4829FC00100
:100E20001124816080937C0080917A00806480939B
:100E30007A0080917A0086FDFCCF809178006091E5
:100E40007900762F682F072E000C880B990B0E94D3
:100E50001A0923E333E343E550E40E94790920E0D3
:100E600030E040E85AE30E94790920E030E040E0B9
:100E70005FE30E948B0A20E030E048EC52E40E94DD
:100E800079092B013C010E94B50220E030E0A90164
:100E90000E94A00B18160CF03FC00E94B5024B0137
:100EA0005C0180E391E00E94520341E0C301B20182
:100EB0000E94A30382E391E00E94520343E0C50134
:100EC000B4010E94A30385E391E00E94520387E3EB
:100ED00091E00E94520360E08091E9010E940A02C1
:100EE00061E08091E9010E940A0268EE73E080E00F
:100EF00090E00E945D0260E08091E9010E940A0298
:100F00000115110509F43CCF0E941501882309F44D
:100F100037CF0E94000034CF0E94B5024B015C0124
:100F2000B7FAB094B7F8B094BCCF8091E10190913A
:100F3000E201009711F00C948D0C08956627772735
:100F40000C94A207B0E0A0E0E8EAF7E00C944B0AAA
:100F50005C017B016115710519F0DB018D939C9398
:100F600085010F5F1F4FF501D0818D2F90E00E940A
:100F7000F2086C01892BB9F5DD32B9F50F5F1F4F0F
:100F8000D5011196DC91C1E05801F1E0AF1AB1082A
:100F900043E050E060E770E0C5010E94FB08892B48
:100FA00069F5680182E0C80ED11C45E050E06BE6AF
:100FB00070E0C6010E94FB08892B21F4680197E0CC
:100FC000C90ED11CE114F10419F0D701CD92DC92C5
:100FD00060E070E080E89FEFC111FFC060E070E06A
:100FE00080E89FE7FAC05801BBCFDB3229F48501C6
:100FF0000E5F1F4FF501D181C0E0C6CF43E050E046
:1010000068E670E0C5010E94FB08892BE9F0F80151
:1010100010E000E020E030E0A9015F01B0ED8B2E90
:101020008D0E89E08815C8F19C2E689491F88C2F5C
:101030008870C2FF16C0811102C00F5F1F4F31962A
:10104000D501DC91C92DE9CFE114F10429F00E5F3F
:101050001F4FF7011183008360E070E080EC9FE791
:10106000BCC0882311F001501109A5E0B0E00E9436
:101070003A0A9B01AC01220F331F441F551F280D54
:10108000311D411D511D283999E93907490799E159
:101090005907A8F2C6609C2ED2CFAEEF8A1206C0C6
:1010A000C3FD3CC09C2E689493F8C9CFDF7DD53436
:1010B000A9F580818D3239F4C061DF0112968181FA
:1010C00062E070E006C0DF018B32C1F3119661E08F
:1010D00070E080535D01A61AB70A8A30F8F4E0E8A0
:1010E000CE16ECE0DE065CF4B601660F771F660FE5
:1010F000771FC60ED71ECC0CDD1CC80ED11C5D019F
:10110000FFEFAF1ABF0A8C9180538A30A8F1C4FF59
:1011100003C0D194C194D1080C0D1D1DC1FF09C09D
:10112000E114F10431F081E0A81AB108D701AD92C1
:10113000BC92CA01B9010E941809C370C33009F4F6
:1011400090584B015C0120E030E0A9010E94130996
:10115000882309F440C0CFE9D0E017FF05C01195FE
:1011600001951109C7E8D0E06E01B8E1CB1AD108AA
:1011700080E2E82EF12C0FC0D501B1CFFE01259100
:101180003591459154910E191F09C501B4010E9472
:1011900079094B015C01D501C4010E151F0574F7D7
:1011A0002497F594E794CC16DD06A9F78A2F880FCB
:1011B0008B2F881F8F3F49F020E030E0A901C50147
:1011C000B4010E941309811106C082E290E090935D
:1011D000F5018093F401C501B401CDB7DEB7ECE0B1
:1011E0000C94670A91110C94E609803219F0895029
:1011F0008550C8F70895FB01DC014150504088F04C
:101200008D9181341CF08B350CF4805E65916134D6
:101210001CF06B350CF4605E861B611171F3990B49
:101220000895881BFCCF0E94550908F481E00895B9
:10123000E89409C097FB3EF4909580957095619570
:101240007F4F8F4F9F4F9923A9F0F92F96E9BB2726
:101250009395F695879577956795B795F111F8CFA2
:10126000FAF4BB0F11F460FF1BC06F5F7F4F8F4F0D
:101270009F4F16C0882311F096E911C0772321F003
:101280009EE8872F762F05C0662371F096E8862F9B
:1012900070E060E02AF09A95660F771F881FDAF7F2
:1012A000880F9695879597F90895990F0008550F1F
:1012B000AA0BE0E8FEEF16161706E807F907C0F0DC
:1012C00012161306E407F50798F0621B730B840BE4
:1012D000950B39F40A2661F0232B242B252B21F4BE
:1012E00008950A2609F4A140A6958FEF811D811D5E
:1012F00008950E948C090C94000A0E94F20938F0AB
:101300000E94F90920F0952311F00C94E9090C943E
:10131000EF0911240C94340A0E94110A70F3959F6E
:10132000C1F3950F50E0551F629FF001729FBB27DC
:10133000F00DB11D639FAA27F00DB11DAA1F649F78
:101340006627B00DA11D661F829F2227B00DA11D2B
:10135000621F739FB00DA11D621F839FA00D611DB1
:10136000221F749F3327A00D611D231F849F600DD2
:10137000211D822F762F6A2F11249F5750409AF0FB
:10138000F1F088234AF0EE0FFF1FBB1F661F771F87
:10139000881F91505040A9F79E3F510580F00C9452
:1013A000E9090C94340A5F3FE4F3983ED4F3869540
:1013B00077956795B795F795E7959F5FC1F7FE2BF2
:1013C000880F911D9695879597F9089599278827F5
:1013D000089597F99F6780E870E060E008959FEFB7
:1013E00080EC089500240A941616170618060906BC
:1013F000089500240A94121613061406050608958B
:10140000092E0394000C11F4882352F0BB0F40F412
:10141000BF2B11F460FF04C06F5F7F4F8F4F9F4F52
:10142000089557FD9058440F551F59F05F3F71F0D4
:101430004795880F97FB991F61F09F3F79F087953B
:101440000895121613061406551FF2CF4695F1DFC4
:1014500008C0161617061806991FF1CF8695710554
:10146000610508940895E894BB2766277727CB0188
:1014700097F908950E947C0AA59F900DB49F900D46
:10148000A49F800D911D112408952F923F924F9299
:101490005F926F927F928F929F92AF92BF92CF9204
:1014A000DF92EF92FF920F931F93CF93DF93CDB70D
:1014B000DEB7CA1BDB0B0FB6F894DEBF0FBECDBF85
:1014C00009942A88398848885F846E847D848C8456
:1014D0009B84AA84B984C884DF80EE80FD800C815F
:1014E0001B81AA81B981CE0FD11D0FB6F894DEBF42
:1014F0000FBECDBFED010895A29FB001B39FC00103
:10150000A39F700D811D1124911DB29F700D811D2F
:101510001124911D08955058BB27AA270E94A30AA1
:101520000C94000A0E94F20938F00E94F90920F098
:1015300039F49F3F19F426F40C94EF090EF4E0956A
:10154000E7FB0C94E909E92F0E94110A58F3BA1736
:10155000620773078407950720F079F4A6F50C94C9
:10156000330A0EF4E0950B2EBA2FA02D0B01B90112
:1015700090010C01CA01A0011124FF27591B99F009
:10158000593F50F4503E68F11A16F040A22F232F15
:10159000342F4427585FF3CF469537952795A79565
:1015A000F0405395C9F77EF41F16BA0B620B730B0C
:1015B000840BBAF09150A1F0FF0FBB1F661F771F7D
:1015C000881FC2F70EC0BA0F621F731F841F48F432
:1015D000879577956795B795F7959E3F08F0B0CFBB
:1015E0009395880F08F09927EE0F979587950895A2
:1015F0000E940C0B0C94000A0E94F90958F00E94FA
:10160000F20940F029F45F3F29F00C94E9095111E7
:101610000C94340A0C94EF090E94110A68F3992380
:10162000B1F3552391F3951B550BBB27AA276217DE
:101630007307840738F09F5F5F4F220F331F441FEB
:10164000AA1FA9F335D00E2E3AF0E0E832D091501F
:101650005040E695001CCAF72BD0FE2F29D0660F0C
:10166000771F881FBB1F261737074807AB07B0E84F
:1016700009F0BB0B802DBF01FF2793585F4F3AF055
:101680009E3F510578F00C94E9090C94340A5F3FB1
:10169000E4F3983ED4F3869577956795B795F795DB
:1016A0009F5FC9F7880F911D9695879597F90895C3
:1016B000E1E0660F771F881FBB1F6217730784075F
:1016C000BA0720F0621B730B840BBA0BEE1F88F76E
:1016D000E09508950E94710B6894B1110C94340A3E
:1016E00008950E94190A88F09F5798F0B92F9927FA
:1016F000B751B0F0E1F0660F771F881F991F1AF0FD
:10170000BA95C9F714C0B13091F00E94330AB1E024
:1017100008950C94330A672F782F8827B85F39F023
:10172000B93FCCF3869577956795B395D9F73EF495
:1017300090958095709561957F4F8F4F9F4F08953D
:101740000E94550908F48FEF08950E945509880BEF
:10175000990B0895A1E21A2EAA1BBB1BFD010DC017
:10176000AA1FBB1FEE1FFF1FA217B307E407F50751
:1017700020F0A21BB30BE40BF50B661F771F881F2D
:10178000991F1A9469F760957095809590959B01C3
:10179000AC01BD01CF010895052E97FB1EF4009406
:1017A0000E94E30B57FD07D00E94AA0B07FC03D051
:1017B0004EF40C94E30B50954095309521953F4F96
:1017C0004F4F5F4F089590958095709561957F4F2D
:1017D0008F4F9F4F0895EE0FFF1F0590F491E02D5E
:1017E00009940F931F93CF93DF938230910510F4E8
:1017F00082E090E0E091F801F091F90130E020E022
:10180000B0E0A0E0309799F42115310509F44AC001
:10181000281B390B24303105D8F58A819B8161154D
:10182000710589F1FB0193838283FE0111C0408120
:1018300051810281138148175907E0F04817590771
:1018400099F4109761F012960C93129713961C93CB
:101850003296CF01DF91CF911F910F9108950093A0
:10186000F8011093F901F4CF2115310551F0421719
:10187000530738F0A901DB019A01BD01DF01F8012E
:10188000C1CFEF01F9CF9093F9018093F801CDCF4B
:10189000FE01E20FF31F81939193225031093983A6
:1018A0002883D7CF2091F6013091F701232B41F403
:1018B00020910301309104013093F7012093F60148
:1018C00020910101309102012115310541F42DB71C
:1018D0003EB74091050150910601241B350BE09164
:1018E000F601F091F701E217F307A0F42E1B3F0B6E
:1018F0002817390778F0AC014E5F5F4F2417350782
:1019000048F04E0F5F1F5093F7014093F60181930B
:1019100091939FCFF0E0E0E09CCFCF93DF930097CF
:10192000E9F0FC01329713821282A091F801B09184
:10193000F901ED0130E020E01097A1F42081318120
:10194000820F931F2091F6013091F7012817390774
:1019500009F061C0F093F701E093F601DF91CF91B8
:101960000895EA01CE17DF07E8F54A815B819E0101
:1019700041155105B1F7E901FB83EA83499159917A
:10198000C40FD51FEC17FD0761F480819181029689
:10199000840F951FE90199838883828193819B83BA
:1019A0008A83F0E0E0E012968D919C911397009766
:1019B000B9F52D913C911197CD010296820F931F9D
:1019C0002091F6013091F7012817390739F6309741
:1019D00051F51092F9011092F801B093F701A0931C
:1019E000F601BCCFD383C28340815181840F951F00
:1019F000C817D90761F44E5F5F4F88819981480FFE
:101A0000591F518340838A819B819383828321154F
:101A1000310509F0B0CFF093F901E093F8019ECFC2
:101A2000FD01DC01C0CF13821282D7CFB0E0A0E06D
:101A3000ECE1FDE00C94470A8C01009751F4CB01D6
:101A40000E94F10B8C01C801CDB7DEB7E0E10C9428
:101A5000630AFC01E60FF71F9C0122503109E217CF
:101A6000F30708F49DC0D901CD91DC911197C617F9
:101A7000D70798F0C530D10530F3CE01049786170B
:101A8000970708F3C61BD70B2297C193D1936D9389
:101A90007C93CF010E948D0CD6CF5B01AC1ABD0A9E
:101AA0004C018C0E9D1EA091F801B091F901512CB2
:101AB000412CF12CE12C109731F58091F601909199
:101AC000F7018815990509F05CC04616570608F01D
:101AD00058C08091010190910201009741F48DB7A7
:101AE0009EB74091050150910601841B950BE817A4
:101AF000F90708F055C0F093F701E093F601F901FA
:101B000071836083A0CF8D919C91119712966C90F8
:101B1000129713967C901397A815B90559F56C0187
:101B200042E0C40ED11CCA14DB0420F1AC014A19F6
:101B30005B09DA011296159780F0628273825183F5
:101B40004083D9016D937C93E114F10471F0D701C6
:101B50001396FC93EE93129776CF22968C0F9D1FCF
:101B6000F90191838083F301EFCFF093F901E093C2
:101B7000F80169CF4816590608F42C017D01D301FC
:101B80009ACFCB010E94F10B7C01009749F0AE0186
:101B9000B8010E94D30DC8010E948D0C870153CF5C
:101BA00010E000E050CFFB01DC0102C001900D927B
:101BB00041505040D8F70895FB01DC0101900D928F
:101BC0000020E1F7089510E0C0E8D0E004C0FE0175
:101BD0000E94EB0B2196C138D107C9F7F894FFCFCB
:101BE000010000FA018000000000004B01AB00D8AA
:101BF0000098010901E700FB000000000090027F4F
:101C0000046E616E00696E66006F766600600A00A1
:0A1C10005B002C20005D000D0A00AF
:00000001FF
