:100000000C9462000C948A000C948A000C948A0070
:100010000C948A000C948A000C948A000C948A0038
:100020000C948A000C948A000C948A000C948A0028
:100030000C948A000C948A000C948A000C948A0018
:100040000C94BF040C948A000C948D040C946704E7
:100050000C948A000C948A000C948A000C948A00F8
:100060000C948A000C948A000000000023002600F3
:10007000290000000008000201000003040700003E
:1000800000000000000000000000250028002B00F8
:1000900000000000240027002A00040404040404D3
:1000A0000404020202020202030303030303010227
:1000B00004081020408001020408102001020408F6
:1000C0001020090511241FBECFEFD8E0DEBFCDBF41
:1000D00011E0A0E0B1E0E0EFF4E102C005900D9284
:1000E000A833B107D9F721E0A8E3B1E001C01D9220
:1000F000AF3EB207E1F710E0C2E6D0E004C02197BE
:10010000FE010E944B09C136D107C9F70E9448057C
:100110000C94760A0C940000AF92BF92CF92DF92BB
:10012000EF92FF920F931F93CF93DF936C017B01AC
:100130008B01040F151FEB015E01AE18BF08C0173D
:10014000D10759F06991D601ED91FC910190F081B0
:10015000E02DC6010995892B79F7C501DF91CF9173
:100160001F910F91FF90EF90DF90CF90BF90AF90D5
:100170000895FC01538D448D252F30E0842F90E0AD
:10018000821B930B541710F0CF9608950197089592
:10019000FC01918D828D981761F0A28DAE0FBF2F5B
:1001A000B11D5D968C91928D9F5F9F73928F90E0B1
:1001B00008958FEF9FEF0895FC01918D828D981720
:1001C00031F0828DE80FF11D858D90E008958FEF5D
:1001D0009FEF0895FC01918D228D892F90E0805C26
:1001E0009F4F821B91098F739927089581E491E0B5
:1001F0000E94EA0021E0892B09F420E0822F089573
:1002000080E090E0892B29F00E94F60081110C9487
:1002100000000895FC01A48DA80FB92FB11DA35AA9
:10022000BF4F2C91848D90E001968F739927848F16
:10023000A689B7892C93A089B1898C918370806439
:100240008C93938D848D981306C00288F389E02DDA
:1002500080818F7D80830895EF92FF920F931F938B
:10026000CF93DF93EC0181E0888F9B8D8C8D981369
:100270001AC0E889F989808185FF15C09FB7F89475
:10028000EE89FF896083E889F989808183708064C1
:1002900080839FBF81E090E0DF91CF911F910F910C
:1002A000FF90EF900895F62E0B8D10E00F5F1F4F1B
:1002B0000F731127E02E8C8D8E110CC00FB607FC2A
:1002C000FACFE889F989808185FFF5CFCE010E94B8
:1002D0000A01F1CFEB8DEC0FFD2FF11DE35AFF4F1B
:1002E000F0829FB7F8940B8FEA89FB898081806246
:1002F000CFCFCF93DF93EC01888D8823B9F0AA8903
:10030000BB89E889F9898C9185FD03C0808186FDD0
:100310000DC00FB607FCF7CF8C9185FFF2CF80811F
:1003200085FFEDCFCE010E940A01E9CFDF91CF9189
:100330000895833081F028F4813099F08230A9F05B
:1003400008958730A9F08830C9F08430B1F48091E5
:1003500080008F7D03C0809180008F778093800024
:10036000089584B58F7784BD089584B58F7DFBCFC4
:100370008091B0008F778093B00008958091B00095
:100380008F7DF9CFCF93DF93282F30E0F901EE581E
:10039000FF4F8491F901E255FF4FD491F901E656E0
:1003A000FF4FC491CC23A1F081110E949901EC2F41
:1003B000F0E0EE0FFF1FE859FF4FA591B491EC91CB
:1003C000ED2381E090E009F480E0DF91CF91089582
:1003D00080E090E0FACF1F93CF93DF93282F30E097
:1003E000F901EE58FF4F8491F901E255FF4FD49186
:1003F000F901E656FF4FC491CC23A9F0162F8111C5
:100400000E949901EC2FF0E0EE0FFF1FEA57FF4F1B
:10041000A591B4918FB7F894EC91111108C0D095C3
:10042000DE23DC938FBFDF91CF911F910895DE2BE8
:10043000F8CF3FB7F89480913D0190913E01A09193
:100440003F01B091400126B5A89B05C02F3F19F090
:100450000196A11DB11D3FBFBA2FA92F982F882744
:10046000BC01CD01620F711D811D911D42E0660F1F
:10047000771F881F991F4A95D1F708958F929F92F1
:10048000AF92BF92CF92DF92EF92FF926B017C010D
:100490000E9419024B015C01C114D104E104F10472
:1004A000B9F00E941902681979098A099B09683E06
:1004B00073408105910580F321E0C21AD108E1085B
:1004C000F10888EE880E83E0981EA11CB11CE4CFD1
:1004D000FF90EF90DF90CF90BF90AF909F908F9064
:1004E00008950895FF920F931F93CF93DF93F82EF3
:1004F000062FC7E0D0E010E061E0802F0E94EB0102
:100500008F2D0E94C2010C2E01C0880F0A94EAF7B9
:10051000182B60E0802F0E94EB01219768F7812F54
:10052000DF91CF911F910F91FF900895EF92FF926D
:100530000F931F93CF93DF938091E1010E94C2013B
:10054000892B31F060E070E0CB010E943E02F4CFD5
:10055000DFB7F8946091E0018091E1010E9472029E
:10056000082F6091E0018091E1010E947202C82F82
:100570006091E0018091E1010E947202182FF12C3C
:10058000E12C8091E2018E151F0479F070F061E09A
:100590008091E0010E94EB0160E08091E0010E9407
:1005A000EB018FEFE81AF80AECCFDFBF6C2F70E099
:1005B00090E080E0982F872F762F6627802B612B85
:1005C000000F000B10E030E020E0302F2227112731
:1005D0000027602B712B822B932BDF91CF911F91E2
:1005E0000F91FF90EF900895CF92DF92EF92FF92DC
:1005F0000F931F93CF93CAE0C12CD12C76010E9498
:100600009602C60ED71EE81EF91E60E070E0CB0110
:100610000E943E02C15099F7C701B6012AE030E0BE
:1006200040E050E00E942C098091E3019091E401A8
:10063000A091E501B091E60179018A01E81AF90A71
:100640000A0B1B0BC801B7010E94E3072091E701C9
:100650003091E8014091E9015091EA010E94390787
:10066000CF911F910F91FF90EF90DF90CF90089561
:10067000FC0101900020E9F73197AF01481B590BAD
:10068000BC0181E491E00C948C008F929F92AF9218
:10069000BF920F931F93CF93DF93CDB7DEB7A19790
:1006A0000FB6F894DEBF0FBECDBF19A2423008F4DA
:1006B0004AE08E010F5D1F4F842E912CB12CA12C8E
:1006C000A50194010E940A09E62FB901CA01EA3086
:1006D000F4F4E05DD801EE938D01232B242B252B20
:1006E00079F790E080E0109719F0CD010E9438036F
:1006F000A1960FB6F894DEBF0FBECDBFDF91CF91AC
:100700001F910F91BF90AF909F908F900895E95CDB
:10071000E1CF4F925F926F927F928F929F92AF92B2
:10072000BF92CF92DF92EF92FF920F931F93CF93DE
:100730006B017C01742EAC019B010E94050988238A
:1007400099F081E291E0CF911F910F91FF90EF908E
:10075000DF90CF90BF90AF909F908F907F906F90E1
:100760005F904F900C94380346015701E894B7F816
:100770002FEF3FEF4FE75FE7C501B4010E94050986
:1007800081110DC02FEF3FEF4FE75FE7C501B401C7
:100790000E94340718161CF485E291E0D4CF2FEFA5
:1007A0003FEF4FE75FE4C701B6010E9493081816B8
:1007B0001CF489E291E0C7CF2FEF3FEF4FE75FECEA
:1007C000C701B6010E94340787FDF3CF20E030E077
:1007D000A901C701B6010E94340710E000E087FFBD
:1007E0000AC06DE281E491E00E942C018C01F7FACD
:1007F000F094F7F8F094C0E060E070E080E09FE3F0
:100800007C1641F020E030E040E251E40E943907DC
:10081000CF5FF6CFA70196010E94C8062B013C01CD
:100820000E94B2074B015C014AE00E9445037C0133
:10083000E00EF11ECC23C1F1C501B4010E94E10715
:100840009B01AC01C301B2010E94C7064B015C01D0
:100850006EE281E491E00E942C01E80EF91EC15085
:1008600018F120E030E040E251E4C501B4010E94FB
:1008700098082B013C010E94B2074B01B12CA12C1E
:100880004AE0C501B4010E944503E80EF91EC50106
:10089000B4010E94E1079B01AC01C301B2010E94B7
:1008A000C7064B015C01DBCFC701CF911F910F91B0
:1008B000FF90EF90DF90CF90BF90AF909F908F9080
:1008C0007F906F905F904F9008950C94ED091F9268
:1008D0000F920FB60F9211242F933F934F935F9374
:1008E0006F937F938F939F93AF93BF93EF93FF93F8
:1008F00081E491E00E940A01FF91EF91BF91AF91D5
:100900009F918F917F916F915F914F913F912F9127
:100910000F900FBE0F901F9018951F920F920FB659
:100920000F9211242F938F939F93EF93FF93E09156
:100930005101F09152018081E0915701F0915801ED
:1009400082FD1BC0908180915A018F5F8F7320912F
:100950005B01821741F0E0915A01F0E0EF5BFE4F3E
:10096000958F80935A01FF91EF919F918F912F91D5
:100970000F900FBE0F901F9018958081F4CF1F929B
:100980000F920FB60F9211242F933F938F939F9343
:10099000AF93BF938091390190913A01A0913B01AF
:1009A000B0913C013091380123E0230F2D3758F5E9
:1009B0000196A11DB11D20933801809339019093B8
:1009C0003A01A0933B01B0933C0180913D0190918D
:1009D0003E01A0913F01B09140010196A11DB11DC2
:1009E00080933D0190933E01A0933F01B09340015D
:1009F000BF91AF919F918F913F912F910F900FBE1B
:100A00000F901F90189526E8230F0296A11DB11D87
:100A1000D2CFE1E4F1E01382128288EE93E0A0E00D
:100A2000B0E084839583A683B7838BE091E09183C4
:100A3000808385EC90E09587848784EC90E09787AD
:100A4000868780EC90E0918B808B81EC90E0938B9B
:100A5000828B82EC90E0958B848B86EC90E0978B78
:100A6000868B118E128E138E148EEEEDF1E08DE1D9
:100A700091E091838083158216821782108680E030
:100A800090E0A0E8BFE381879287A387B4870895A9
:100A9000789484B5826084BD84B5816084BD85B559
:100AA000826085BD85B5816085BD80916E00816065
:100AB00080936E001092810080918100826080930B
:100AC000810080918100816080938100809180000D
:100AD0008160809380008091B10084608093B10038
:100AE0008091B00081608093B00080917A00846032
:100AF00080937A0080917A00826080937A0080915E
:100B00007A00816080937A0080917A008068809377
:100B10007A001092C100E0915101F091520192E0EF
:100B20009083E0914D01F0914E011082E0914F01D0
:100B3000F09150018FEC808310925901E0915501A2
:100B4000F091560186E08083E0915301F0915401C9
:100B5000808180618083E0915301F0915401808114
:100B600088608083E0915301F09154018081806816
:100B70008083E0915301F091540180818F7D8083C7
:100B80009093E00183E08093E101E0EBF0E02491B9
:100B9000ECE9F0E08491882399F090E0880F991FA8
:100BA000FC01E057FF4FA591B491FC01EA57FF4FBC
:100BB000859194918FB7F894EC91E22BEC938FBFD1
:100BC0008091E10190E0FC01E255FF4F24918656AF
:100BD0009F4FFC0184918823C1F090E0880F991FFA
:100BE000FC01E057FF4FC591D491FC01EA57FF4F3C
:100BF000A591B4919FB7F8943881822F8095832373
:100C00008883EC91E22BEC939FBF81E08093E2011B
:100C100080E090EBA7E4B5EC8093E7019093E801C6
:100C2000A093E901B093EA01CAE0C12CD12C76016E
:100C30000E949602C60ED71EE81EF91E60E070E004
:100C4000CB010E943E02C15099F7C701B6012AE0CC
:100C500030E040E050E00E942C09CA01B9010E9436
:100C6000E3070E94AB076093E3017093E401809374
:100C7000E5019093E60110920001C0E0D0E0809180
:100C80000001F0E48F9FC0011124816080937C00FB
:100C900080917A00806480937A0080917A0086FD4A
:100CA000FCCF8091780060917900762F682F072E15
:100CB000000C880B990B0E94E30723E333E343E521
:100CC00050E40E94980820E030E040E85AE30E9497
:100CD000980820E030E040E05FE30E94C70620E093
:100CE00030E048EC52E40E9498084B015C010E94FD
:100CF000F40220E030E0A9010E9493081816F4F5F0
:100D00000E94F4026B017C018DE291E00E943803A5
:100D100041E0C501B4010E9489038FE291E00E9485
:100D2000380343E0C701B6010E94890382E391E0E2
:100D30000E94380384E391E00E94380360E08091D0
:100D4000E0010E94EB0161E08091E0010E94EB0173
:100D500068EE73E080E090E00E943E0260E08091E7
:100D6000E0010E94EB01209709F489CF0E94F60070
:100D7000882309F484CF0E94000081CF0E94F402EE
:100D80006B017C01F7FAF094F7F8F094BDCF50585E
:100D9000BB27AA270E94DF060C9459080E944B0823
:100DA00038F00E94520820F039F49F3F19F426F4DD
:100DB0000C9448080EF4E095E7FB0C944208E92FE8
:100DC0000E946A0858F3BA176207730784079507E9
:100DD00020F079F4A6F50C948C080EF4E0950B2E17
:100DE000BA2FA02D0B01B90190010C01CA01A0017D
:100DF0001124FF27591B99F0593F50F4503E68F1D8
:100E00001A16F040A22F232F342F4427585FF3CF18
:100E1000469537952795A795F0405395C9F77EF4E9
:100E20001F16BA0B620B730B840BBAF09150A1F032
:100E3000FF0FBB1F661F771F881FC2F70EC0BA0FB8
:100E4000621F731F841F48F4879577956795B79540
:100E5000F7959E3F08F0B0CF9395880F08F099273B
:100E6000EE0F9795879508950E941E0808F481E07B
:100E700008950E944D070C9459080E94520858F09A
:100E80000E944B0840F029F45F3F29F00C9442087F
:100E900051110C948D080C9448080E946A0868F35C
:100EA0009923B1F3552391F3951B550BBB27AA2723
:100EB00062177307840738F09F5F5F4F220F331F5D
:100EC000441FAA1FA9F335D00E2E3AF0E0E832D025
:100ED00091505040E695001CCAF72BD0FE2F29D028
:100EE000660F771F881FBB1F261737074807AB07FA
:100EF000B0E809F0BB0B802DBF01FF2793585F4F6F
:100F00003AF09E3F510578F00C9442080C948D08FD
:100F10005F3FE4F3983ED4F3869577956795B79550
:100F2000F7959F5FC9F7880F911D9695879597F95B
:100F30000895E1E0660F771F881FBB1F62177307D4
:100F40008407BA0720F0621B730B840BBA0BEE1FE9
:100F500088F7E09508950E94B2076894B1110C9447
:100F60008D0808950E94720888F09F5798F0B92F55
:100F70009927B751B0F0E1F0660F771F881F991FCE
:100F80001AF0BA95C9F714C0B13091F00E948C08DC
:100F9000B1E008950C948C08672F782F8827B85FEC
:100FA00039F0B93FCCF3869577956795B395D9F726
:100FB0003EF490958095709561957F4F8F4F9F4F30
:100FC0000895E89409C097FB3EF49095809570953C
:100FD00061957F4F8F4F9F4F9923A9F0F92F96E985
:100FE000BB279395F695879577956795B795F111FA
:100FF000F8CFFAF4BB0F11F460FF1BC06F5F7F4F97
:101000008F4F9F4F16C0882311F096E911C07723A8
:1010100021F09EE8872F762F05C0662371F096E8B1
:10102000862F70E060E02AF09A95660F771F881F80
:10103000DAF7880F9695879597F90895990F000824
:10104000550FAA0BE0E8FEEF16161706E807F9079A
:10105000C0F012161306E407F50798F0621B730B35
:10106000840B950B39F40A2661F0232B242B252BB6
:1010700021F408950A2609F4A140A6958FEF811D59
:10108000811D089597F99F6780E870E060E00895FA
:101090009FEF80EC089500240A9416161706180690
:1010A0000906089500240A9412161306140605066C
:1010B0000895092E0394000C11F4882352F0BB0FFD
:1010C00040F4BF2B11F460FF04C06F5F7F4F8F4F60
:1010D0009F4F089557FD9058440F551F59F05F3F9B
:1010E00071F04795880F97FB991F61F09F3F79F04A
:1010F00087950895121613061406551FF2CF4695CC
:10110000F1DF08C0161617061806991FF1CF86954D
:101110007105610508940895E894BB276627772731
:10112000CB0197F908950E941E0808F48FEF0895E7
:101130000E94AB080C9459080E944B0838F00E949A
:10114000520820F0952311F00C9442080C944808A2
:1011500011240C948D080E946A0870F3959FC1F3C6
:10116000950F50E0551F629FF001729FBB27F00D55
:10117000B11D639FAA27F00DB11DAA1F649F6627AA
:10118000B00DA11D661F829F2227B00DA11D621FF9
:10119000739FB00DA11D621F839FA00D611D221FB3
:1011A000749F3327A00D611D231F849F600D211D97
:1011B000822F762F6A2F11249F5750409AF0F1F01A
:1011C00088234AF0EE0FFF1FBB1F661F771F881F83
:1011D00091505040A9F79E3F510580F00C94420871
:1011E0000C948D085F3FE4F3983ED4F38695779591
:1011F0006795B795F795E7959F5FC1F7FE2B880F29
:10120000911D9695879597F908950E941E08880B61
:10121000990B0895A1E21A2EAA1BBB1BFD010DC05C
:10122000AA1FBB1FEE1FFF1FA217B307E407F50796
:1012300020F0A21BB30BE40BF50B661F771F881F72
:10124000991F1A9469F760957095809590959B0108
:10125000AC01BD01CF010895052E97FB1EF400944B
:101260000E94430957FD07D00E940A0907FC03D0DA
:101270004EF40C94430950954095309521953F4F7D
:101280004F4F5F4F089590958095709561957F4F72
:101290008F4F9F4F0895EE0FFF1F0590F491E02DA3
:1012A00009940F931F93CF93DF938230910510F42D
:1012B00082E090E0E091ED01F091EE0130E020E07D
:1012C000B0E0A0E0309799F42115310509F44AC047
:1012D000281B390B24303105D8F58A819B81611593
:1012E000710589F1FB0193838283FE0111C0408166
:1012F00051810281138148175907E0F048175907B7
:1013000099F4109761F012960C93129713961C9310
:101310003296CF01DF91CF911F910F9108950093E5
:10132000ED011093EE01F4CF2115310551F0421774
:10133000530738F0A901DB019A01BD01DF01F80173
:10134000C1CFEF01F9CF9093EE018093ED01CDCFA6
:10135000FE01E20FF31F81939193225031093983EB
:101360002883D7CF2091EB013091EC01232B41F45E
:1013700020910301309104013093EC012093EB01A3
:1013800020910101309102012115310541F42DB761
:101390003EB74091050150910601241B350BE091A9
:1013A000EB01F091EC01E217F307A0F42E1B3F0BC9
:1013B0002817390778F0AC014E5F5F4F24173507C7
:1013C00048F04E0F5F1F5093EC014093EB01819367
:1013D00091939FCFF0E0E0E09CCFCF93DF93009715
:1013E000E9F0FC01329713821282A091ED01B091D5
:1013F000EE01ED0130E020E01097A1F42081318171
:10140000820F931F2091EB013091EC0128173907CF
:1014100009F061C0F093EC01E093EB01DF91CF9113
:101420000895EA01CE17DF07E8F54A815B819E0146
:1014300041155105B1F7E901FB83EA8349915991BF
:10144000C40FD51FEC17FD0761F4808191810296CE
:10145000840F951FE90199838883828193819B83FF
:101460008A83F0E0E0E012968D919C9113970097AB
:10147000B9F52D913C911197CD010296820F931FE2
:101480002091EB013091EC012817390739F630979C
:1014900051F51092EE011092ED01B093EC01A09382
:1014A000EB01BCCFD383C28340815181840F951F50
:1014B000C817D90761F44E5F5F4F88819981480F43
:1014C000591F518340838A819B8193838283211595
:1014D000310509F0B0CFF093EE01E093ED019ECF1E
:1014E000FD01DC01C0CF13821282D7CFF894FFCF69
:1014F000010000EF018000000000002C018C00B909
:10150000007901EA00C800DC0000000000710265FB
:10151000046E616E00696E66006F7666005B002C7B
:0815200020005D000D0A00002F
:107E0000112484B714BE81FFF0D085E080938100F7
:107E100082E08093C00088E18093C10086E0809377
:107E2000C20080E18093C4008EE0C9D0259A86E02C
:107E300020E33CEF91E0309385002093840096BBD3
:107E4000B09BFECF1D9AA8958150A9F7CC24DD24C4
:107E500088248394B5E0AB2EA1E19A2EF3E0BF2EE7
:107E6000A2D0813461F49FD0082FAFD0023811F036
:107E7000013811F484E001C083E08DD089C08234E0
:107E800011F484E103C0853419F485E0A6D080C0E4
:107E9000853579F488D0E82EFF2485D0082F10E0AE
:107EA000102F00270E291F29000F111F8ED06801E7
:107EB0006FC0863521F484E090D080E0DECF843638
:107EC00009F040C070D06FD0082F6DD080E0C81688
:107ED00080E7D80618F4F601B7BEE895C0E0D1E017
:107EE00062D089930C17E1F7F0E0CF16F0E7DF06D8
:107EF00018F0F601B7BEE89568D007B600FCFDCFD4
:107F0000A601A0E0B1E02C9130E011968C91119780
:107F100090E0982F8827822B932B1296FA010C0160
:107F200087BEE89511244E5F5F4FF1E0A038BF0790
:107F300051F7F601A7BEE89507B600FCFDCF97BE46
:107F4000E89526C08437B1F42ED02DD0F82E2BD052
:107F50003CD0F601EF2C8F010F5F1F4F84911BD097
:107F6000EA94F801C1F70894C11CD11CFA94CF0C13
:107F7000D11C0EC0853739F428D08EE10CD085E9AC
:107F80000AD08FE07ACF813511F488E018D01DD067
:107F900080E101D065CF982F8091C00085FFFCCF94
:107FA0009093C60008958091C00087FFFCCF809118
:107FB000C00084FD01C0A8958091C6000895E0E648
:107FC000F0E098E1908380830895EDDF803219F02E
:107FD00088E0F5DFFFCF84E1DECF1F93182FE3DFCA
:107FE0001150E9F7F2DF1F91089580E0E8DFEE27F6
:047FF000FF270994CA
:027FFE00040479
:0400000300007E007B
:00000001FF
