:100000000C9462000C948A000C948A000C948A0070
:100010000C948A000C948A000C948A000C948A0038
:100020000C948A000C948A000C948A000C948A0028
:100030000C948A000C948A000C948A000C948A0018
:100040000C9496040C948A000C9464040C943E0462
:100050000C948A000C948A000C948A000C948A00F8
:100060000C948A000C948A000000000023002600F3
:10007000290000000008000201000003040700003E
:1000800000000000000000000000250028002B00F8
:1000900000000000240027002A00040404040404D3
:1000A0000404020202020202030303030303010227
:1000B00004081020408001020408102001020408F6
:1000C0001020E00411241FBECFEFD8E0DEBFCDBF6B
:1000D00011E0A0E0B1E0E4E7F5E102C005900D9287
:1000E000A03FB107D9F722E0A0EFB1E001C01D9217
:1000F000AB3AB207E1F710E0C2E6D0E004C02197C6
:10010000FE010E948D09C136D107C9F70E941F0563
:100110000C94B80A0C940000AF92BF92CF92DF9279
:10012000EF92FF920F931F93CF93DF936C017B01AC
:100130008B01040F151FEB015E01AE18BF08C0173D
:10014000D10759F06991D601ED91FC910190F081B0
:10015000E02DC6010995892B79F7C501DF91CF9173
:100160001F910F91FF90EF90DF90CF90BF90AF90D5
:100170000895FC01538D448D252F30E0842F90E0AD
:10018000821B930B541710F0CF9608950197089592
:10019000FC01918D828D981761F0A28DAE0FBF2F5B
:1001A000B11D5D968C91928D9F5F9F73928F90E0B1
:1001B00008958FEF9FEF0895FC01918D828D981720
:1001C00031F0828DE80FF11D858D90E008958FEF5D
:1001D0009FEF0895FC01918D228D892F90E0805C26
:1001E0009F4F821B91098F73992708958DEF91E09E
:1001F0000E94EA0021E0892B09F420E0822F089573
:1002000080E090E0892B29F00E94F60081110C9487
:1002100000000895FC01A48DA80FB92FB11DA35AA9
:10022000BF4F2C91848D90E001968F739927848F16
:10023000A689B7892C93A089B1898C918370806439
:100240008C93938D848D981306C00288F389E02DDA
:1002500080818F7D80830895EF92FF920F931F938B
:10026000CF93DF93EC0181E0888F9B8D8C8D981369
:100270001AC0E889F989808185FF15C09FB7F89475
:10028000EE89FF896083E889F989808183708064C1
:1002900080839FBF81E090E0DF91CF911F910F910C
:1002A000FF90EF900895F62E0B8D10E00F5F1F4F1B
:1002B0000F731127E02E8C8D8E110CC00FB607FC2A
:1002C000FACFE889F989808185FFF5CFCE010E94B8
:1002D0000A01F1CFEB8DEC0FFD2FF11DE35AFF4F1B
:1002E000F0829FB7F8940B8FEA89FB898081806246
:1002F000CFCFCF93DF93EC01888D8823B9F0AA8903
:10030000BB89E889F9898C9185FD03C0808186FDD0
:100310000DC00FB607FCF7CF8C9185FFF2CF80811F
:1003200085FFEDCFCE010E940A01E9CFDF91CF9189
:100330000895833081F028F4813099F08230A9F05B
:1003400008958730A9F08830C9F08430B1F48091E5
:1003500080008F7D03C0809180008F778093800024
:10036000089584B58F7784BD089584B58F7DFBCFC4
:100370008091B0008F778093B00008958091B00095
:100380008F7DF9CFCF93DF93282F30E0F901EE581E
:10039000FF4F8491F901E255FF4FD491F901E656E0
:1003A000FF4FC491CC23A1F081110E949901EC2F41
:1003B000F0E0EE0FFF1FE859FF4FA591B491EC91CB
:1003C000ED2381E090E009F480E0DF91CF91089582
:1003D00080E090E0FACF1F93CF93DF93282F30E097
:1003E000F901EE58FF4F8491F901E255FF4FD49186
:1003F000F901E656FF4FC491CC23A9F0162F8111C5
:100400000E949901EC2FF0E0EE0FFF1FEA57FF4F1B
:10041000A591B4918FB7F894EC91111108C0D095C3
:10042000DE23DC938FBFDF91CF911F910895DE2BE8
:10043000F8CF3FB7F8948091F5019091F601A09123
:10044000F701B091F80126B5A89B05C02F3F19F020
:100450000196A11DB11D3FBFBA2FA92F982F882744
:10046000BC01CD01620F711D811D911D42E0660F1F
:10047000771F881F991F4A95D1F708950C94190288
:100480000895FC0101900020E9F73197AF01481B66
:10049000590BBC018DEF91E00C948C008F929F92D0
:1004A000AF92BF920F931F93CF93DF93CDB7DEB779
:1004B000A1970FB6F894DEBF0FBECDBF19A2423090
:1004C00008F44AE08E010F5D1F4F842E912CB12C51
:1004D000A12CA50194010E944C09E62FB901CA0183
:1004E000EA30F4F4E05DD801EE938D01232B242B48
:1004F000252B79F790E080E0109719F0CD010E944C
:100500004102A1960FB6F894DEBF0FBECDBFDF91BA
:10051000CF911F910F91BF90AF909F908F900895B2
:10052000E95CE1CFCF93DF930E944102EC0184E2CA
:1005300091E00E9441028C0F9D1FDF91CF910895A1
:10054000FF920F931F93CF93DF93F82E062FC7E0F0
:10055000D0E010E061E0802F0E94EB018F2D0E941F
:10056000C2010C2E01C0880F0A94EAF7182B60E034
:10057000802F0E94EB01219768F7812FDF91CF91A7
:100580001F910F91FF900895EF92FF920F931F9389
:10059000CF93DF9380919D020E94C201892B19F0B5
:1005A0000E943E02F7CFDFB7F89460919C028091E1
:1005B0009D020E94A002082F60919C0280919D02E2
:1005C0000E94A002C82F60919C0280919D020E940F
:1005D000A002182FF12CE12C80919E028E151F0491
:1005E00079F070F061E080919C020E94EB0160E084
:1005F00080919C020E94EB018FEFE81AF80AECCF81
:10060000DFBF6C2F70E090E080E0982F872F762F6F
:100610006627802B612B000F000B10E030E020E0FC
:10062000302F222711270027602B712B822B932B31
:10063000DF91CF911F910F91FF90EF900895CF928E
:10064000DF92EF92FF920F931F93CF93CAE0C12CDA
:10065000D12C76010E94C402C60ED71EE81EF91ED8
:100660000E943E02C150B1F7C701B6012AE030E056
:1006700040E050E00E946E0980919F029091A0029C
:10068000A091A102B091A20279018A01E81AF90AA7
:100690000A0B1B0BC801B7010E9425082091A30279
:1006A0003091A4024091A5025091A6020E947B07BE
:1006B000CF911F910F91FF90EF90DF90CF90089511
:1006C0004F925F926F927F928F929F92AF92BF9262
:1006D000CF92DF92EF92FF920F931F93CF936B0114
:1006E0007C01742EAC019B010E944709882399F07C
:1006F00087E291E0CF911F910F91FF90EF90DF90F3
:10070000CF90BF90AF909F908F907F906F905F90B1
:100710004F900C94410246015701E894B7F82FEF2F
:100720003FEF4FE75FE7C501B4010E944709811120
:100730000DC02FEF3FEF4FE75FE7C501B4010E9407
:10074000760718161CF48BE291E0D4CF2FEF3FEF21
:100750004FE75FE4C701B6010E94D50818161CF4E4
:100760008FE291E0C7CF2FEF3FEF4FE75FECC7017C
:10077000B6010E94760787FDF3CF20E030E0A901A3
:10078000C701B6010E94760710E000E087FF0AC0AB
:100790006DE28DEF91E00E942C018C01F7FAF0944C
:1007A000F7F8F094C0E060E070E080E09FE37C1632
:1007B00041F020E030E040E251E40E947B07CF5F4F
:1007C000F6CFA70196010E940A072B013C010E9467
:1007D000F4074B015C014AE00E944E027C01E00EEE
:1007E000F11ECC23C1F1C501B4010E9423089B0175
:1007F000AC01C301B2010E9409074B015C016EE22A
:100800008DEF91E00E942C01E80EF91EC15018F105
:1008100020E030E040E251E4C501B4010E94DA0872
:100820002B013C010E94F4074B01B12CA12C4AE0A2
:10083000C501B4010E944E02E80EF91EC501B401C3
:100840000E9423089B01AC01C301B2010E94090769
:100850004B015C01DBCFC701CF911F910F91FF903E
:10086000EF90DF90CF90BF90AF909F908F907F9050
:100870006F905F904F9008950C942F0A1F920F92E3
:100880000FB60F9211242F933F934F935F936F9363
:100890007F938F939F93AF93BF93EF93FF938DEFCE
:1008A00091E00E940A01FF91EF91BF91AF919F915A
:1008B0008F917F916F915F914F913F912F910F9009
:1008C0000FBE0F901F9018951F920F920FB60F92A8
:1008D00011242F938F939F93EF93FF93E0910D0239
:1008E000F0910E028081E0911302F091140282FDDA
:1008F0001BC09081809116028F5F8F732091170229
:10090000821741F0E0911602F0E0E350FE4F958F20
:1009100080931602FF91EF919F918F912F910F90ED
:100920000FBE0F901F9018958081F4CF1F920F92E9
:100930000FB60F9211242F933F938F939F93AF93F2
:10094000BF938091F1019091F201A091F301B091D8
:10095000F4013091F00123E0230F2D3758F5019673
:10096000A11DB11D2093F0018093F1019093F2013C
:10097000A093F301B093F4018091F5019091F601F9
:10098000A091F701B091F8010196A11DB11D8093CE
:10099000F5019093F601A093F701B093F801BF9190
:1009A000AF919F918F913F912F910F900FBE0F901C
:1009B0001F90189526E8230F0296A11DB11DD2CFD6
:1009C000EDEFF1E01382128288EE93E0A0E0B0E058
:1009D00084839583A683B7838EE091E0918380839F
:1009E00085EC90E09587848784EC90E097878687F4
:1009F00080EC90E0918B808B81EC90E0938B828BEC
:100A000082EC90E0958B848B86EC90E0978B868BC4
:100A1000118E128E138E148EEAE9F2E080E291E0DC
:100A200091838083158216821782108680E090E081
:100A3000A0E8BFE381879287A387B487089578945D
:100A400084B5826084BD84B5816084BD85B58260D3
:100A500085BD85B5816085BD80916E008160809384
:100A60006E001092810080918100826080938100ED
:100A700080918100816080938100809180008160FD
:100A8000809380008091B10084608093B100809158
:100A9000B00081608093B00080917A008460809380
:100AA0007A0080917A00826080937A0080917A0047
:100AB000816080937A0080917A00806880937A00C8
:100AC0001092C100E0910D02F0910E02C2E0C083CD
:100AD000E0910D02F0910E021082E0910902F09176
:100AE0000A021082E0910B02F0910C0280E18083F7
:100AF00010921502E0911102F091120286E08083BB
:100B0000E0910F02F0911002808180618083E0917A
:100B10000F02F0911002808188608083E0910F02C3
:100B2000F0911002808180688083E0910F02F09143
:100B3000100280818F7D808383E391E00E94920286
:100B40008AE491E00E949202C0939C0283E0809329
:100B50009D02E0EBF0E02491ECE9F0E08491882341
:100B600099F090E0880F991FFC01E057FF4FA59185
:100B7000B491FC01EA57FF4F859194918FB7F89497
:100B8000EC91E22BEC938FBF80919D0290E0FC01F1
:100B9000E255FF4F249186569F4FFC018491882394
:100BA000C1F090E0880F991FFC01E057FF4FC591FD
:100BB000D491FC01EA57FF4FA591B4919FB7F894E7
:100BC0003881822F809583238883EC91E22BEC93EC
:100BD0009FBF81E080939E0280E090E0A0E8BFE3A9
:100BE0008093A3029093A402A093A502B093A602BF
:100BF000CAE0C12CD12C76010E94C402C60ED71EB9
:100C0000E81EF91E0E943E02C150B1F7C701B601AD
:100C10002AE030E040E050E00E946E09CA01B901CC
:100C20000E9425080E94ED0760939F027093A00226
:100C30008093A1029093A20287E691E00E94920223
:100C4000812C80EB982E87E4A82E85E4B82EC0E096
:100C5000D0E08092A3029092A402A092A502B0924A
:100C6000A6020E941F0320E030E0A9010E94D508DF
:100C700018160CF076C00E941F036B017C018DEFEB
:100C800091E00E94EA00892B09F460C08DEF91E0A9
:100C90000E94C800182F8737F9F4C092F901D0924A
:100CA000FA01E092FB01F092FC0189E891E00E94D8
:100CB00041026091F9017091FA018091FB019091DC
:100CC000FC0142E00E94600384E291E00E94410244
:100CD00080EA91E00E9492024090F9015090FA015E
:100CE0006090FB017090FC0120E030E0A901C3019D
:100CF000B2010E9476078823E9F11136D9F5A701E0
:100D00009601C301B2010E9409079B01AC01C30116
:100D1000B2010E947B0760930001709301018093F0
:100D20000201909303018FEC91E00E9441026091D7
:100D3000000170910101809102019091030142E054
:100D40000E94600384E291E00E944102209709F42E
:100D500080CF0E94F600882309F47BCF0E94000018
:100D600078CF0E941F036B017C01F7FAF094F7F82B
:100D7000F09485CF103651F787EE91E00E94410242
:100D8000C0909F02D090A002E090A102F090A20239
:100D90004AE0C701B601F7FE0DC06DE28DEF91E0AC
:100DA0000E942C0166277727CB016C197D098E09DB
:100DB0009F094AE00E944E0284E291E00E944102B3
:100DC0008DEF91E00E947901E0910F02F091100205
:100DD00080818F7E8083E0910F02F09110028081EC
:100DE000877F8083E0910F02F091100280818F77DE
:100DF0008083E0910F02F091100280818F7D8083CB
:100E000080911702809316028DEF91E00E94790184
:100E10009DCF5058BB27AA270E9421070C949B08FE
:100E20000E948D0838F00E94940820F039F49F3F0A
:100E300019F426F40C948A080EF4E095E7FB0C9460
:100E40008408E92F0E94AC0858F3BA1762077307A9
:100E50008407950720F079F4A6F50C94CE080EF4DB
:100E6000E0950B2EBA2FA02D0B01B90190010C01BA
:100E7000CA01A0011124FF27591B99F0593F50F4D2
:100E8000503E68F11A16F040A22F232F342F44272A
:100E9000585FF3CF469537952795A795F040539522
:100EA000C9F77EF41F16BA0B620B730B840BBAF0F2
:100EB0009150A1F0FF0FBB1F661F771F881FC2F75D
:100EC0000EC0BA0F621F731F841F48F48795779571
:100ED0006795B795F7959E3F08F0B0CF9395880F2B
:100EE00008F09927EE0F9795879508950E9460085E
:100EF00008F481E008950E948F070C949B080E94DB
:100F0000940858F00E948D0840F029F45F3F29F0C2
:100F10000C94840851110C94CF080C948A080E94F8
:100F2000AC0868F39923B1F3552391F3951B550B46
:100F3000BB27AA2762177307840738F09F5F5F4FAC
:100F4000220F331F441FAA1FA9F335D00E2E3AF0EB
:100F5000E0E832D091505040E695001CCAF72BD003
:100F6000FE2F29D0660F771F881FBB1F2617370754
:100F70004807AB07B0E809F0BB0B802DBF01FF2786
:100F800093585F4F3AF09E3F510578F00C948408D7
:100F90000C94CF085F3FE4F3983ED4F386957795A1
:100FA0006795B795F7959F5FC9F7880F911D96953F
:100FB000879597F90895E1E0660F771F881FBB1F9B
:100FC000621773078407BA0720F0621B730B840B48
:100FD000BA0BEE1F88F7E09508950E94F407689415
:100FE000B1110C94CF0808950E94B40888F09F575F
:100FF00098F0B92F9927B751B0F0E1F0660F771F3D
:10100000881F991F1AF0BA95C9F714C0B13091F032
:101010000E94CE08B1E008950C94CE08672F782F77
:101020008827B85F39F0B93FCCF3869577956795F7
:10103000B395D9F73EF490958095709561957F4F63
:101040008F4F9F4F0895E89409C097FB3EF4909509
:101050008095709561957F4F8F4F9F4F9923A9F091
:10106000F92F96E9BB279395F69587957795679520
:10107000B795F111F8CFFAF4BB0F11F460FF1BC064
:101080006F5F7F4F8F4F9F4F16C0882311F096E9F7
:1010900011C0772321F09EE8872F762F05C06623A5
:1010A00071F096E8862F70E060E02AF09A95660F5E
:1010B000771F881FDAF7880F9695879597F9089517
:1010C000990F0008550FAA0BE0E8FEEF1616170659
:1010D000E807F907C0F012161306E407F50798F0C1
:1010E000621B730B840B950B39F40A2661F0232BDA
:1010F000242B252B21F408950A2609F4A140A69556
:101100008FEF811D811D089597F99F6780E870E03A
:1011100060E008959FEF80EC089500240A9416166D
:10112000170618060906089500240A9412161306D5
:10113000140605060895092E0394000C11F4882363
:1011400052F0BB0F40F4BF2B11F460FF04C06F5F7F
:101150007F4F8F4F9F4F089557FD9058440F551F55
:1011600059F05F3F71F04795880F97FB991F61F029
:101170009F3F79F087950895121613061406551FA0
:10118000F2CF4695F1DF08C0161617061806991F0C
:10119000F1CF86957105610508940895E894BB2701
:1011A00066277727CB0197F908950E94600808F415
:1011B0008FEF08950E94ED080C949B080E948D0803
:1011C00038F00E94940820F0952311F00C948408C4
:1011D0000C948A0811240C94CF080E94AC0870F378
:1011E000959FC1F3950F50E0551F629FF001729FCC
:1011F000BB27F00DB11D639FAA27F00DB11DAA1FDB
:10120000649F6627B00DA11D661F829F2227B00D27
:10121000A11D621F739FB00DA11D621F839FA00DB2
:10122000611D221F749F3327A00D611D231F849F02
:10123000600D211D822F762F6A2F11249F57504059
:101240009AF0F1F088234AF0EE0FFF1FBB1F661FD4
:10125000771F881F91505040A9F79E3F510580F09D
:101260000C9484080C94CF085F3FE4F3983ED4F3C9
:10127000869577956795B795F795E7959F5FC1F741
:10128000FE2B880F911D9695879597F908950E94DA
:101290006008880B990B0895A1E21A2EAA1BBB1BAC
:1012A000FD010DC0AA1FBB1FEE1FFF1FA217B30732
:1012B000E407F50720F0A21BB30BE40BF50B661F48
:1012C000771F881F991F1A9469F76095709580950C
:1012D00090959B01AC01BD01CF010895052E97FBB0
:1012E0001EF400940E94850957FD07D00E944C0906
:1012F00007FC03D04EF40C94850950954095309529
:1013000021953F4F4F4F5F4F089590958095709571
:1013100061957F4F8F4F9F4F0895EE0FFF1F0590F0
:10132000F491E02D09940F931F93CF93DF938230B4
:10133000910510F482E090E0E091A902F091AA02F8
:1013400030E020E0B0E0A0E0309799F421153105BD
:1013500009F44AC0281B390B24303105D8F58A819D
:101360009B816115710589F1FB0193838283FE01E5
:1013700011C0408151810281138148175907E0F063
:101380004817590799F4109761F012960C93129729
:1013900013961C933296CF01DF91CF911F910F913D
:1013A00008950093A9021093AA02F4CF21153105E4
:1013B00051F04217530738F0A901DB019A01BD0132
:1013C000DF01F801C1CFEF01F9CF9093AA0280931A
:1013D000A902CDCFFE01E20FF31F8193919322501A
:1013E000310939832883D7CF2091A7023091A802F1
:1013F000232B41F420910601309107013093A8027C
:101400002093A70220910401309105012115310597
:1014100041F42DB73EB74091080150910901241BBA
:10142000350BE091A702F091A802E217F307A0F4B0
:101430002E1B3F0B2817390778F0AC014E5F5F4F2A
:101440002417350748F04E0F5F1F5093A8024093B2
:10145000A702819391939FCFF0E0E0E09CCFCF93E0
:10146000DF930097E9F0FC01329713821282A0917A
:10147000A902B091AA02ED0130E020E01097A1F49A
:1014800020813181820F931F2091A7023091A80201
:101490002817390709F061C0F093A802E093A7026A
:1014A000DF91CF910895EA01CE17DF07E8F54A8171
:1014B0005B819E0141155105B1F7E901FB83EA8388
:1014C00049915991C40FD51FEC17FD0761F4808134
:1014D00091810296840F951FE90199838883828107
:1014E00093819B838A83F0E0E0E012968D919C913A
:1014F00013970097B9F52D913C911197CD01029664
:10150000820F931F2091A7023091A8022817390754
:1015100039F6309751F51092AA021092A902B093B1
:10152000A802A093A702BCCFD383C283408151817C
:10153000840F951FC817D90761F44E5F5F4F8881EC
:101540009981480F591F518340838A819B819383DE
:1015500082832115310509F0B0CFF093AA02E09300
:10156000A9029ECFFD01DC01C0CF13821282D7CF2A
:04157000F894FFCF1D
:101574000000803F0000AB028000000000002C014E
:101584008C00B9007901EA00C800DC00000000000A
:1015940040023C040D0A006E616E00696E66006FC5
:1015A400766600487964726F6D6574657220436174
:1015B4006C6962726174696F6E0052656D6F7665F5
:1015C40020616C6C207765696768742066726F6D42
:1015D400207363616C6500506C616365206D617399
:1015E40073206F6E207363616C6520616E64206587
:1015F4006E74657220277727004F626A65637420D2
:101604007765696768742073657420746F3A200085
:101614004E6F77207375626D6572676520746865B7
:101624002077656967687420696E207761746572D4
:1016340020616E6420656E74657220276127004FF7
:10164400626A6563742064656E7369747920736576
:101654007420746F3A20004F66667365743A2000F4
:107E0000112484B714BE81FFF0D085E080938100F7
:107E100082E08093C00088E18093C10086E0809377
:107E2000C20080E18093C4008EE0C9D0259A86E02C
:107E300020E33CEF91E0309385002093840096BBD3
:107E4000B09BFECF1D9AA8958150A9F7CC24DD24C4
:107E500088248394B5E0AB2EA1E19A2EF3E0BF2EE7
:107E6000A2D0813461F49FD0082FAFD0023811F036
:107E7000013811F484E001C083E08DD089C08234E0
:107E800011F484E103C0853419F485E0A6D080C0E4
:107E9000853579F488D0E82EFF2485D0082F10E0AE
:107EA000102F00270E291F29000F111F8ED06801E7
:107EB0006FC0863521F484E090D080E0DECF843638
:107EC00009F040C070D06FD0082F6DD080E0C81688
:107ED00080E7D80618F4F601B7BEE895C0E0D1E017
:107EE00062D089930C17E1F7F0E0CF16F0E7DF06D8
:107EF00018F0F601B7BEE89568D007B600FCFDCFD4
:107F0000A601A0E0B1E02C9130E011968C91119780
:107F100090E0982F8827822B932B1296FA010C0160
:107F200087BEE89511244E5F5F4FF1E0A038BF0790
:107F300051F7F601A7BEE89507B600FCFDCF97BE46
:107F4000E89526C08437B1F42ED02DD0F82E2BD052
:107F50003CD0F601EF2C8F010F5F1F4F84911BD097
:107F6000EA94F801C1F70894C11CD11CFA94CF0C13
:107F7000D11C0EC0853739F428D08EE10CD085E9AC
:107F80000AD08FE07ACF813511F488E018D01DD067
:107F900080E101D065CF982F8091C00085FFFCCF94
:107FA0009093C60008958091C00087FFFCCF809118
:107FB000C00084FD01C0A8958091C6000895E0E648
:107FC000F0E098E1908380830895EDDF803219F02E
:107FD00088E0F5DFFFCF84E1DECF1F93182FE3DFCA
:107FE0001150E9F7F2DF1F91089580E0E8DFEE27F6
:047FF000FF270994CA
:027FFE00040479
:0400000300007E007B
:00000001FF
