:100000000C9462000C948A000C948A000C948A0070
:100010000C948A000C948A000C948A000C948A0038
:100020000C948A000C948A000C948A000C948A0028
:100030000C948A000C948A000C948A000C948A0018
:100040000C94C7030C948A000C9495030C946F03D2
:100050000C948A000C948A000C948A000C948A00F8
:100060000C948A000C948A000000000023002600F3
:10007000290000000008000201000003040700003E
:1000800000000000000000000000250028002B00F8
:1000900000000000240027002A00040404040404D3
:1000A0000404020202020202030303030303010227
:1000B00004081020408001020408102001020408F6
:1000C0001020110411241FBECFEFD8E0DEBFCDBF3A
:1000D00011E0A0E0B1E0ECE8F4E102C005900D927F
:1000E000A634B107D9F721E0A6E4B1E001C01D9222
:1000F000AD3FB207E1F710E0C2E6D0E004C02197BF
:10010000FE010E941909C136D107C9F70E945004A7
:100110000C94440A0C940000AF92BF92CF92DF92ED
:10012000EF92FF920F931F93CF93DF936C017B01AC
:100130008B01040F151FEB015E01AE18BF08C0173D
:10014000D10759F06991D601ED91FC910190F081B0
:10015000E02DC6010995892B79F7C501DF91CF9173
:100160001F910F91FF90EF90DF90CF90BF90AF90D5
:100170000895FC01538D448D252F30E0842F90E0AD
:10018000821B930B541710F0CF9608950197089592
:10019000FC01918D828D981761F0A28DAE0FBF2F5B
:1001A000B11D5D968C91928D9F5F9F73928F90E0B1
:1001B00008958FEF9FEF0895FC01918D828D981720
:1001C00031F0828DE80FF11D858D90E008958FEF5D
:1001D0009FEF0895FC01918D228D892F90E0805C26
:1001E0009F4F821B91098F73992708958FE491E0A7
:1001F0000E94EA0021E0892B09F420E0822F089573
:1002000080E090E0892B29F00E94F60081110C9487
:1002100000000895FC01A48DA80FB92FB11DA35AA9
:10022000BF4F2C91848D90E001968F739927848F16
:10023000A689B7892C93A089B1898C918370806439
:100240008C93938D848D981306C00288F389E02DDA
:1002500080818F7D80830895EF92FF920F931F938B
:10026000CF93DF93EC0181E0888F9B8D8C8D981369
:100270001AC0E889F989808185FF15C09FB7F89475
:10028000EE89FF896083E889F989808183708064C1
:1002900080839FBF81E090E0DF91CF911F910F910C
:1002A000FF90EF900895F62E0B8D10E00F5F1F4F1B
:1002B0000F731127E02E8C8D8E110CC00FB607FC2A
:1002C000FACFE889F989808185FFF5CFCE010E94B8
:1002D0000A01F1CFEB8DEC0FFD2FF11DE35AFF4F1B
:1002E000F0829FB7F8940B8FEA89FB898081806246
:1002F000CFCFCF93DF93EC01888D8823B9F0AA8903
:10030000BB89E889F9898C9185FD03C0808186FDD0
:100310000DC00FB607FCF7CF8C9185FFF2CF80811F
:1003200085FFEDCFCE010E940A01E9CFDF91CF9189
:100330000895833081F028F4813099F08230A9F05B
:1003400008958730A9F08830C9F08430B1F48091E5
:1003500080008F7D03C0809180008F778093800024
:10036000089584B58F7784BD089584B58F7DFBCFC4
:100370008091B0008F778093B00008958091B00095
:100380008F7DF9CFCF93DF93282F30E0F901EE581E
:10039000FF4F8491F901E255FF4FD491F901E656E0
:1003A000FF4FC491CC23A1F081110E949901EC2F41
:1003B000F0E0EE0FFF1FE859FF4FA591B491EC91CB
:1003C000ED2381E090E009F480E0DF91CF91089582
:1003D00080E090E0FACF1F93CF93DF93282F30E097
:1003E000F901EE58FF4F8491F901E255FF4FD49186
:1003F000F901E656FF4FC491CC23A9F0162F8111C5
:100400000E949901EC2FF0E0EE0FFF1FEA57FF4F1B
:10041000A591B4918FB7F894EC91111108C0D095C3
:10042000DE23DC938FBFDF91CF911F910895DE2BE8
:10043000F8CF3FB7F89480914B0190914C01A09177
:100440004D01B0914E0126B5A89B05C02F3F19F074
:100450000196A11DB11D3FBFBA2FA92F982F882744
:10046000BC01CD01620F711D811D911D42E0660F1F
:10047000771F881F991F4A95D1F708958F929F92F1
:10048000AF92BF92CF92DF92EF92FF926B017C010D
:100490000E9419024B015C01C114D104E104F10472
:1004A000B9F00E941902681979098A099B09683E06
:1004B00073408105910580F321E0C21AD108E1085B
:1004C000F10888EE880E83E0981EA11CB11CE4CFD1
:1004D000FF90EF90DF90CF90BF90AF909F908F9064
:1004E00008950895FF920F931F93CF93DF93F82EF3
:1004F000062FC7E0D0E010E061E0802F0E94EB0102
:100500008F2D0E94C2010C2E01C0880F0A94EAF7B9
:10051000182B60E0802F0E94EB01219768F7812F54
:10052000DF91CF911F910F91FF9008958F929F922D
:10053000AF92BF92CF92DF92EF92FF920F931F93F1
:10054000CF93DF93C82FC12CD12C7601D0E08091BE
:10055000EF010E94C201892B31F060E070E0CB0115
:100560000E943E02F4CF8FB6F8946091EE01809124
:10057000EF010E947202182F6091EE018091EF014D
:100580000E947202982E6091EE018091EF010E940C
:100590007202082FB12CA12C8091F0018A151B0446
:1005A00079F070F061E08091EE010E94EB0160E073
:1005B0008091EE010E94EB018FEFA81AB80AECCFF0
:1005C0008FBE892D90E0B0E0A0E0BA2FA92F982F20
:1005D0008827A12B802B110F110B412F50E070E0C9
:1005E00060E0742F662755274427842B952BA62B74
:1005F000B72BC80ED91EEA1EFB1E60E070E0CB01CF
:100600000E943E02DF5FCD13A2CF2C2F30E050E0DE
:1006100040E0C701B6010E94FA08CA01B901DF91A2
:10062000CF911F910F91FF90EF90DF90CF90BF90EF
:10063000AF909F908F900895FC0101900020E9F702
:100640003197AF01481B590BBC018FE491E00C942A
:100650008C008F929F92AF92BF920F931F93CF9374
:10066000DF93CDB7DEB7A1970FB6F894DEBF0FBE0C
:10067000CDBF19A2423008F44AE08E010F5D1F4F32
:10068000842E912CB12CA12CA50194010E94D80894
:10069000E62FB901CA01EA30F4F4E05DD801EE9327
:1006A0008D01232B242B252B79F790E080E01097E8
:1006B00019F0CD010E941C03A1960FB6F894DEBF7D
:1006C0000FBECDBFDF91CF911F910F91BF90AF9023
:1006D0009F908F900895E95CE1CF0C94BB091F9225
:1006E0000F920FB60F9211242F933F934F935F9366
:1006F0006F937F938F939F93AF93BF93EF93FF93EA
:100700008FE491E00E940A01FF91EF91BF91AF91B8
:100710009F918F917F916F915F914F913F912F9119
:100720000F900FBE0F901F9018951F920F920FB64B
:100730000F9211242F938F939F93EF93FF93E09148
:100740005F01F09160018081E0916501F0916601A7
:1007500082FD1BC09081809168018F5F8F73209113
:100760006901821741F0E0916801F0E0E15BFE4F22
:10077000958F80936801FF91EF919F918F912F91B9
:100780000F900FBE0F901F9018958081F4CF1F928D
:100790000F920FB60F9211242F933F938F939F9335
:1007A000AF93BF938091470190914801A091490177
:1007B000B0914A013091460123E0230F2D3758F5BF
:1007C0000196A11DB11D209346018093470190938E
:1007D0004801A0934901B0934A0180914B01909147
:1007E0004C01A0914D01B0914E010196A11DB11D8A
:1007F00080934B0190934C01A0934D01B0934E0117
:10080000BF91AF919F918F913F912F910F900FBE0C
:100810000F901F90189526E8230F0296A11DB11D79
:10082000D2CFEFE4F1E01382128288EE93E0A0E0F1
:10083000B0E084839583A683B7838BE091E09183B6
:10084000808385EC90E09587848784EC90E097879F
:10085000868780EC90E0918B808B81EC90E0938B8D
:10086000828B82EC90E0958B848B86EC90E0978B6A
:10087000868B118E128E138E148EECEEF1E08DE1CC
:1008800091E091838083158216821782108680E022
:1008900090E0A0E8BFE381879287A387B48708959B
:1008A000CF93DF93CDB7DEB728970FB6F894DEBFAE
:1008B0000FBECDBF789484B5826084BD84B581605D
:1008C00084BD85B5826085BD85B5816085BD80911B
:1008D0006E00816080936E00109281008091810093
:1008E000826080938100809181008160809381008B
:1008F000809180008160809380008091B10084604D
:100900008093B1008091B00081608093B0008091AD
:100910007A00846080937A0080917A00826080936C
:100920007A0080917A00816080937A0080917A00C9
:10093000806880937A001092C100E0915F01F0918D
:10094000600192E09083E0915B01F0915C01108284
:10095000E0915D01F0915E018FEC80831092670160
:10096000E0916301F091640186E08083E091610190
:10097000F0916201808180618083E0916101F0915A
:100980006201808188608083E0916101F091620161
:10099000808180688083E0916101F09162018081B3
:1009A0008F7D80839093EE0183E08093EF01E0EBF5
:1009B000F0E02491ECE9F0E08491882399F090E054
:1009C000880F991FFC01E057FF4FA591B491FC01DE
:1009D000EA57FF4F859194918FB7F894EC91E22BF1
:1009E000EC938FBF8091EF0190E0FC01E255FF4F47
:1009F000249186569F4FFC0184918823C9F090E092
:100A0000880F991FFC01E057FF4F45915491FC015D
:100A1000EA57FF4FA591B4919FB7F894FA0130813E
:100A2000822F809583238083EC912E2B2C939FBF64
:100A300081E08093F00180E090E0A0E8BFE3809344
:100A4000F5019093F601A093F701B093F8018AE0C5
:100A50000E9496020E94B1070E9479076093F101FB
:100A60007093F2018093F3019093F4018AE00E9465
:100A700096026B017C0181E291E00E941C034AE036
:100A8000C701B601F7FE0DC06DE28FE491E00E9450
:100A90002C0166277727CB016C197D098E099F09E8
:100AA0004AE00E9429038FE291E00E941C03109209
:100AB0000001812C80E8982E85E4A82EBA2C809223
:100AC000F5019092F601A092F701B092F8018091A1
:100AD0000001F0E48F9FC0011124816080937C00AD
:100AE00080917A00806480937A0080917A0086FDFC
:100AF000FCCF8091780060917900762F682F072EC7
:100B0000000C880B990B0E94B10723E333E343E504
:100B100050E40E94660820E030E040E85AE30E947A
:100B2000660820E030E040E05FE30E94950620E0A8
:100B300030E048EC52E40E94660869837A838B8334
:100B40009C8381E00E9496020091F1011091F201D4
:100B50002091F3013091F401601B710B820B930B18
:100B60000E94B1072091F5013091F6014091F70103
:100B70005091F8010E9407076D837E838F839887C9
:100B800082E391E00E941C03CE0101961C0110E05B
:100B900000E0F101C190D190E190F1901F01A70117
:100BA0009601C701B6010E94D308882361F184E34E
:100BB00091E00E941C030115110521F480E491E0ED
:100BC0000E941C0301301105D9F483E491E00E94D6
:100BD0001C038FE291E00E941C0368EE73E080E04A
:100BE00090E00E943E0280E090E0892B09F467CFFC
:100BF0000E94F600882309F462CF0E9400005FCFB4
:100C000001E010E0C6CF26013701E89477F82FEF16
:100C10003FEF4FE75FE7C301B2010E94D3088111A4
:100C20000DC02FEF3FEF4FE75FE7C301B2010E9416
:100C3000020718161CF488E391E0BBCF2FEF3FEFBB
:100C40004FE75FE4C701B6010E94610818161CF463
:100C50008CE391E0AECF2FEF3FEF4FE75FECC701A2
:100C6000B6010E94020787FDF3CF20E030E0A90122
:100C7000C701B6010E94020787FF09C06DE28FE439
:100C800091E00E942C01F7FAF094F7F8F0942AE032
:100C900037ED43EA5BE3C701B6010E9496062B01DC
:100CA0003C010E9480076B017C010E94AF079B0101
:100CB000AC01C301B2010E9495062B013C014AE040
:100CC000C701B6010E9429036EE28FE491E00E9401
:100CD0002C0120E030E040E251E4C301B2010E9467
:100CE00066082B013C010E9480076B01F12CE12C6E
:100CF0004AE0C701B6010E942903C701B6010E945C
:100D0000AF079B01AC01C301B2010E94950620E030
:100D100030E040E251E40E9466080E94800790E0C3
:100D200080E04AE00E94290346CF5058BB27AA27FB
:100D30000E94AD060C9427080E94190838F00E9402
:100D4000200820F039F49F3F19F426F40C9416087B
:100D50000EF4E095E7FB0C941008E92F0E94380888
:100D600058F3BA17620773078407950720F079F4E0
:100D7000A6F50C945A080EF4E0950B2EBA2FA02D70
:100D80000B01B90190010C01CA01A0011124FF2738
:100D9000591B99F0593F50F4503E68F11A16F04033
:100DA000A22F232F342F4427585FF3CF4695379532
:100DB0002795A795F0405395C9F77EF41F16BA0BF7
:100DC000620B730B840BBAF09150A1F0FF0FBB1FA5
:100DD000661F771F881FC2F70EC0BA0F621F731FEE
:100DE000841F48F4879577956795B795F7959E3F4B
:100DF00008F0B0CF9395880F08F09927EE0F9795DC
:100E0000879508950E94EC0708F481E008950E94F8
:100E10001B070C9427080E94200858F00E9419080C
:100E200040F029F45F3F29F00C94100851110C9404
:100E30005B080C9416080E94380868F39923B1F3F4
:100E4000552391F3951B550BBB27AA2762177307F0
:100E5000840738F09F5F5F4F220F331F441FAA1F84
:100E6000A9F335D00E2E3AF0E0E832D09150504040
:100E7000E695001CCAF72BD0FE2F29D0660F771FEE
:100E8000881FBB1F261737074807AB07B0E809F0D4
:100E9000BB0B802DBF01FF2793585F4F3AF09E3F59
:100EA000510578F00C9410080C945B085F3FE4F354
:100EB000983ED4F3869577956795B795F7959F5F9C
:100EC000C9F7880F911D9695879597F90895E1E0E8
:100ED000660F771F881FBB1F621773078407BA0747
:100EE00020F0621B730B840BBA0BEE1F88F7E095A2
:100EF00008950E9480076894B1110C945B080895CE
:100F00000E94400888F09F5798F0B92F9927B75151
:100F1000B0F0E1F0660F771F881F991F1AF0BA959D
:100F2000C9F714C0B13091F00E945A08B1E0089599
:100F30000C945A08672F782F8827B85F39F0B93F8B
:100F4000CCF3869577956795B395D9F73EF4909550
:100F50008095709561957F4F8F4F9F4F0895E894CE
:100F600009C097FB3EF490958095709561957F4FF1
:100F70008F4F9F4F9923A9F0F92F96E9BB2793959F
:100F8000F695879577956795B795F111F8CFFAF4AF
:100F9000BB0F11F460FF1BC06F5F7F4F8F4F9F4FE0
:100FA00016C0882311F096E911C0772321F09EE83E
:100FB000872F762F05C0662371F096E8862F70E0A4
:100FC00060E02AF09A95660F771F881FDAF7880F7E
:100FD0009695879597F90895990F0008550FAA0BD4
:100FE000E0E8FEEF16161706E807F907C0F012163C
:100FF0001306E407F50798F0621B730B840B950B3F
:1010000039F40A2661F0232B242B252B21F4089593
:101010000A2609F4A140A6958FEF811D811D089530
:1010200097F99F6780E870E060E008959FEF80EC9B
:10103000089500240A94161617061806090608953E
:1010400000240A9412161306140605060895092EA4
:101050000394000C11F4882352F0BB0F40F4BF2B13
:1010600011F460FF04C06F5F7F4F8F4F9F4F089553
:1010700057FD9058440F551F59F05F3F71F0479549
:10108000880F97FB991F61F09F3F79F0879508952E
:10109000121613061406551FF2CF4695F1DF08C04D
:1010A000161617061806991FF1CF8695710561056A
:1010B00008940895E894BB2766277727CB0197F912
:1010C00008950E94EC0708F48FEF08950E947908B4
:1010D0000C9427080E94190838F00E94200820F07C
:1010E000952311F00C9410080C94160811240C94FC
:1010F0005B080E94380870F3959FC1F3950F50E08C
:10110000551F629FF001729FBB27F00DB11D639FB9
:10111000AA27F00DB11DAA1F649F6627B00DA11D5F
:10112000661F829F2227B00DA11D621F739FB00D05
:10113000A11D621F839FA00D611D221F749F332775
:10114000A00D611D231F849F600D211D822F762F0E
:101150006A2F11249F5750409AF0F1F088234AF0EB
:10116000EE0FFF1FBB1F661F771F881F9150504057
:10117000A9F79E3F510580F00C9410080C945B0871
:101180005F3FE4F3983ED4F3869577956795B795DE
:10119000F795E7959F5FC1F7FE2B880F911D9695F8
:1011A000879597F908950E94EC07880B990B08958D
:1011B000A1E21A2EAA1BBB1BFD010DC0AA1FBB1F5B
:1011C000EE1FFF1FA217B307E407F50720F0A21BCD
:1011D000B30BE40BF50B661F771F881F991F1A943A
:1011E00069F760957095809590959B01AC01BD0164
:1011F000CF010895052E97FB1EF400940E9411095B
:1012000057FD07D00E94D80807FC03D04EF40C9479
:10121000110950954095309521953F4F4F4F5F4FA5
:10122000089590958095709561957F4F8F4F9F4F52
:101230000895EE0FFF1F0590F491E02D09940F9390
:101240001F93CF93DF938230910510F482E090E0FA
:10125000E091FB01F091FC0130E020E0B0E0A0E083
:10126000309799F42115310509F44AC0281B390B30
:1012700024303105D8F58A819B816115710589F18A
:10128000FB0193838283FE0111C040815181028161
:10129000138148175907E0F04817590799F4109738
:1012A00061F012960C93129713961C933296CF010D
:1012B000DF91CF911F910F9108950093FB0110933F
:1012C000FC01F4CF2115310551F04217530738F0D6
:1012D000A901DB019A01BD01DF01F801C1CFEF01D6
:1012E000F9CF9093FC018093FB01CDCFFE01E20F7B
:1012F000F31F819391932250310939832883D7CFEB
:101300002091F9013091FA01232B41F4209103013E
:10131000309104013093FA012093F90120910101E9
:10132000309102012115310541F42DB73EB74091AE
:10133000050150910601241B350BE091F901F09154
:10134000FA01E217F307A0F42E1B3F0B2817390709
:1013500078F0AC014E5F5F4F2417350748F04E0F11
:101360005F1F5093FA014093F901819391939FCFAE
:10137000F0E0E0E09CCFCF93DF930097E9F0FC0131
:10138000329713821282A091FB01B091FC01ED0112
:1013900030E020E01097A1F420813181820F931F6B
:1013A0002091F9013091FA012817390709F061C03D
:1013B000F093FA01E093F901DF91CF910895EA01EA
:1013C000CE17DF07E8F54A815B819E014115510583
:1013D000B1F7E901FB83EA8349915991C40FD51F05
:1013E000EC17FD0761F4808191810296840F951FAF
:1013F000E90199838883828193819B838A83F0E0CA
:10140000E0E012968D919C9113970097B9F52D917C
:101410003C911197CD010296820F931F2091F90103
:101420003091FA012817390739F6309751F51092A3
:10143000FC011092FB01B093FA01A093F901BCCF1B
:10144000D383C28340815181840F951FC817D90768
:1014500061F44E5F5F4F88819981480F591F518316
:1014600040838A819B81938382832115310509F012
:10147000B0CFF093FC01E093FB019ECFFD01DC01B6
:0C148000C0CF13821282D7CFF894FFCFA8
:10148C00010000FD018000000000002C018C00B95F
:10149C00007901EA00C800DC000000000071026D58
:1014AC00035A65726F20666163746F723A20000D87
:1014BC000A005B006E616E00696E66006F766600F6
:0614CC002C20005D000071
:00000001FF
